:020000040800F2
:1000000000000220511B00089D1B000895050008F8
:100010009B050008A1050008A705000800000000D6
:100020000000000000000000000000009D1B000810
:100030009D1B0008000000009D1B00089D1B000880
:100040009D1B00089D1B00089D1B00089D1B0008B0
:100050009D1B00089D1B00089D1B00089D1B0008A0
:100060009D1B00089D1B00089D1B00089D1B000890
:100070009D1B00089D1B00089D1B00089D1B000880
:100080009D1B00089D1B00089D1B00080000000030
:100090000000000000000000000000009D1B0008A0
:1000A0009D1B00089D1B00089D1B00089D1B000850
:1000B0009D1B00089D1B00089D1B00089D1B000840
:1000C0009D1B00089D1B00089D1B00089D1B000830
:1000D0009D1B00089D1B00089D1B000800000000E0
:1000E0009D1B00089D1B00089D1B000800000000D0
:1000F0000000000000000000000000009D1B000840
:10010000000000009D1B00089D1B00089D1B0008AF
:1001100000000000000000000000000000000000DF
:100120009D1B00089D1B00089D1B00089D1B0008CF
:100130009D1B0008000000000000000000000000FF
:100140000000000000000000000000009D1B0008EF
:100150009D1B00089D1B00089D1B00089D1B00089F
:100160009D1B00089D1B000800000000000000000F
:10017000000000000000000000000000000000007F
:10018000000000009D1B00080000000000000000AF
:100190009D1B00089D1B00080348044B834202D0AE
:1001A000034B03B118477047680D0020680D00200D
:1001B00000000000054806490B1AD90F01EBA30106
:1001C000491002D0034B03B118477047680D002057
:1001D000680D00200000000010B5064C237843B9DC
:1001E000FFF7DAFF044B13B10448AFF3008001239B
:1001F000237010BD680D0020000000004CE30008D3
:1002000008B5044B1BB104490448AFF30080BDE8B6
:100210000840CFE7000000006C0D00204CE3000810
:10022000A3F5803A704700BF154B002B08BF114B58
:100230009D46FFF7F5FF00218B460F461148124AF5
:10024000121A04F007FD0C4B002B00D098470B4B03
:10025000002B00D098470020002104000D000B481F
:1002600000F096FE04F0C4FA2000290001F05CF9C9
:1002700001F000F800000800000000001915000857
:1002800000000220680D002028140020F53F00081F
:10029000036818470B6803607047704710B5094B37
:1002A000036003F1200280330446C0F8B020C0F898
:1002B000B430B03003F056F9204602F03BFD204642
:1002C00010BD00BF04D90008A0F1B000E6E7A0F11E
:1002D000B400E3E71FB52F4B1B68032B17D8DFE8EB
:1002E00003F002192B3D2C4B18680BF019FC0B4640
:1002F0002A4902460868CDE902230BF011FCDDE92A
:100300000223CDE900012649264803F03DF905B056
:100310005DF804FB204B18680BF002FC0B461F49EC
:1003200002460868CDE902230BF0FAFBDDE902235F
:10033000CDE900011C49E7E7174B18680BF0F0FB0B
:100340000B46164902460868CDE902230BF0E8FB8C
:10035000DDE90223CDE900011449D5E70E4B186809
:100360000BF0DEFB0B460D4902460868CDE902237F
:100370000BF0D6FBDDE90223CDE900010C49094869
:1003800003F002F90B49074805B05DF804EB03F0F0
:10039000FBB800BF840D0020880D0020AC0E0020AB
:1003A000A8D00008900E0020C4D00008E1D00008BA
:1003B000FED00008A4D2000810B5174C2368632BA8
:1003C00025DD164802F044FD07EE900AB8EEE77A04
:1003D000D4ED007A124BF8EEE77AC7EE276AB7EE53
:1003E000007AC7EE267A9FED0F7AC3ED006A67EEBA
:1003F000877A0D4BC3ED007A00232360FFF76AFF75
:100400004FF07C5003F0F6FA044802F025FD236813
:100410000133236010BD00BFDC0D0020380F002029
:10042000AC0E002000247449880D00201FB5022165
:10043000134802F0DBFA4FF07E5003F0DBFA114A6A
:100440000F4800231360104A1360104AD1681268E5
:1004500012040A600E4A916812680A60CDE90133FD
:100460000C4B009369460C4B039302F004FB039B77
:1004700013B19B6868469847084802F0AEFCFEE757
:100480008C0D0020DC0D0020840D0020B00E00201B
:10049000CC0E0020B90300081CD10008380F002042
:1004A00010B50446FFF7FAFE2046CC2103F082FB8C
:1004B000204610BDA0F1B000F2E7A0F1B400EFE7D4
:1004C00030B5294D294C8FB04FF4165300930322B9
:1004D00000230221284602F02DFB2846244D254901
:1004E000224600F053FD0021284602F053FA22462E
:1004F0002149284600F04AFD204B214D1C22184678
:10050000002104F0A7FB0D2102F005FD1D4B1C226C
:100510001846002104F09EFB0E2102F0FCFC4FF077
:10052000FF33CDE90B33CDE90933CDE90733CDE90D
:100530000533CDE90333CDE9013300932F220F2199
:10054000284602F0B5F928460F4D1049224600F022
:100550001DFD284602F091FC0D49224628460FB0A9
:10056000BDE8304000F012BDE00D002098020020F0
:100570008C0D00209D020008192A0008B00E0020F2
:10058000E80E0020CC0E0020380F0020752800084F
:10059000BB2D0008102300F009B8202300F006B896
:1005A000302300F003B8402300F000B8EFF30880D8
:1005B000042172460A4201D0EFF309809C46244B85
:1005C000196802680A60043142680A60043182686E
:1005D0000A600431C2680A600431F0C147460F6006
:1005E00004314F460F60043157460F6004315F46B7
:1005F0000F60043102690A60083142690A600431FF
:1006000082690A600431C2690A60043103462033FA
:100610004FF40076324200D004337546102635423E
:1006200000D148330C46103C2360EFF309820A6086
:100630000431EFF308820A60043172460A60043123
:10064000EFF314820A606046014900F09BFBFEE76D
:1006500070D3000830B5036891FAA1F4B4FA84F4B9
:1006600091FAA1F10325B1FA81F1640005FA04F4CD
:10067000490023EA040302FA01F11943016030BD85
:100680007FB500222A4B07284FD8DFE800F004127C
:100690001E2A364E4E4200921A6B264842F0010244
:1006A0001A631B6B03F001030093009B07B05DF816
:1006B00004FB01921A6B204842F002021A631B6B82
:1006C00003F002030193019BF0E702921A6B1B48AF
:1006D00042F004021A631B6B03F004030293029BB3
:1006E000E4E703921A6B164842F008021A631B6B88
:1006F00003F008030393039BD8E704921A6B114895
:1007000042F010021A631B6B03F010030493049B66
:10071000CCE705921A6B0C4842F080021A631B6BFF
:1007200003F080030593059BC0E7084803F098F8A1
:10073000003802400000024000040240000802406D
:10074000000C024000100240001C0240D0D1000802
:10075000431C10B5044604D176220649064802F02F
:1007600033FF002100F004FF04F00F040120A0403B
:1007700010BD00BFF1D1000843D2000870B5044697
:100780004B1C0E46218216D0C1F30310FFF778FFF1
:1007900005463046FFF7DCFF238A074A656103F010
:1007A0000F03206052F82330A36105F110031835C0
:1007B0006360A560E56070BDD4D60008B0F9100094
:1007C00000F068BF0A4619B981694069FFF742BF66
:1007D0000122F9E74C232DE9F0414343204E214FFC
:1007E0001A1D324400244FF0010E1E448C4203D1E6
:1007F00001461D4803F034F833680EFA04F51D4233
:100800002BD0136B7D690EFA03F32B4225D0D2F85F
:1008100018C07B61156805B3FA6833EA020203D198
:10082000BA6833EA020214D10E4A916833EA010130
:1008300003D1D26833EA02020DD1DCF81020134252
:1008400014BF01210221094B28461B68BDE8F04175
:1008500018470221F7E70121F5E701340432C5E723
:10086000580F0020003C01407DD200086C11002090
:1008700006210846FFF7AEBF05210846FFF7AABFCD
:1008800001210420FFF7A6BF01210320FFF7A2BF2B
:1008900001210220FFF79EBF01210846FFF79ABF02
:1008A00001210020FFF796BF012910B518D11B4C7C
:1008B000838952B1A26803F00F0399401143A160EC
:1008C000836843F00103836010BDA26803F00F0347
:1008D000994022EA0101A160836823F00103F2E755
:1008E0000229F1D10D4983895AB1CC6803F00F0375
:1008F000012202FA03F32343CB60836843F002032F
:10090000E1E7CA6803F00F03012404FA03F322EAC3
:100910000303CB60836823F00203D4E7003C01406B
:10092000B0F90C3099B270B501F00F0606F00C0466
:1009300004F1804404F59C3401F00301A5688900AA
:100940000F228A40C3F3031325EA02058B402B4391
:10095000A3600F4B01221968B240114319608468EB
:10096000E50742BF996811439960A10742BFD96862
:100970000A43DA6090F90030002B08DB59090122A4
:1009800003F01F0302FA03F3024A42F8213070BD5C
:10099000003C014000E100E02DE9F04F92464A1C86
:1009A00085B080460D4663D000220392314A324F13
:1009B000516C41F480415164526C02F480420392C4
:1009C000039A05F00F090C2202FB0972C5F303100C
:1009D0005468062C49D8DFE804F0043C3E40424409
:1009E0004600264E0193FFF74BFE0C2101FB09F157
:1009F0007A1857F801E0224FA8F80C504C216143B7
:100A000001257B5892F90820C8F8044005FA0EF534
:100A10004FF0000B1D4388F80020C8F808B07D5047
:100A2000132101FB04E407EB8401019B4B60154B90
:100A3000C861C3F800A0144BC1F834909B68103211
:100A4000404643F82260FFF76BFF584605B0BDE80B
:100A5000F08F0E4EC6E70E4EC4E70E4EC2E70E4EA6
:100A6000C0E70E4EBEE70E4EBCE70E4802F0F8FEA1
:100A70000846EBE700380240A8D20008A1080008A9
:100A8000580F00206C11002000ED00E099080008CC
:100A90009108000889080008810800087908000802
:100AA0007108000856D2000883890C2203F00F0356
:100AB00070B55A431C4CA518A4581C4A6E6895681A
:100AC000012101FA03F3DB431D409560D5681D4009
:100AD000D56015682B4013604C237343144AD358D8
:100AE00001FA04F4A3431ED190F90030002B0CDB73
:100AF0005A0903F01F03994002F120030D4A42F8FE
:100B00002310BFF34F8FBFF36F8F90F90030002B8E
:100B100009DB5A09012103F01F0301FA03F36032D4
:100B2000044941F8223070BDA8D20008003C0140C1
:100B3000580F002000E100E0838903F00F020C232E
:100B40005343104A70B4D65843680F4A4C21594356
:100B5000012404FA06F5545824EA050454501321DC
:100B600001FB036302EB8304002161609C1D0C33D5
:100B700002EB840402EB83036160596070BCFFF7F1
:100B800093BF00BFA8D20008580F002008B501F09D
:100B9000CDFD002008BD000008B50A4B1B684BB115
:100BA00002F0F0FB02F0D8FB4FF47A7200230BF056
:100BB000E7FA08BD01F01AFE4FF47A73B0FBF3F0C8
:100BC00008BD00BF7011002000B589B002F018FD0B
:100BD000052101A802F09FF9114E124D0424039B38
:100BE000019A1A60304602F0F5FE019B049A1B043C
:100BF0001360304602F0EEFE013CF0D10424039B6A
:100C0000019A1A60284602F0E5FE019B049A1B0433
:100C10001360284602F0DEFE013CF0D1DEE700BFA3
:100C2000F0490200801A060010B5044602F0E8FC04
:100C3000204604F085FB21460246022000F046FAD9
:100C4000BDE8104002F0F2BC10B5A2B00B4602465F
:100C5000842101A805F0F8FE8328044605D9052261
:100C600005490DF1830003F0F3FE002C02DD01A81D
:100C7000FFF7DAFF22B010BD68D300080FB407B544
:100C800004A951F8040B0191FFF7DEFF03B05DF8F2
:100C900004EB04B070470000F0B52C4C2C4F85B02D
:100CA0000025264654F82520294638460135FFF709
:100CB000E5FF0D2DF6D1A36C0293636C0193236CB9
:100CC000009304F13401234C23480EC9FFF7D6FFEB
:100CD00021682248FFF7D2FFE16AA26AA36AA06AEC
:100CE000256BE76B0297000C01950090C3F3072377
:100CF000D2B21B48FFF7C2FFA36A1D0603D5616B82
:100D00001848FFF7BBFFA36A180403D5A16B164868
:100D1000FFF7B4FFF36C190712D51448FFF7AEFFC5
:100D2000336DDA070FD51248FFF7A8FFF36C5B07A6
:100D30004CBF1048104805B0BDE8F040FFF79EBF1B
:100D40000E48FFF79BFF0E48EEE700BF980100201A
:100D500004D4000800ED00E012D4000861D40008BB
:100D60006FD40008BED40008CCD40008DAD4000840
:100D7000E9D4000819D5000825D5000809D50008D0
:100D8000F6D4000813B504461548FFF777FF302C5A
:100D900017D0402C1AD0202C1DD11248124CFFF72E
:100DA0006DFF1248FFF76AFFFFF776FF1048FFF765
:100DB00065FF00230F4A0093D26B0F49204602F0D3
:100DC0006FFD0E480E4CFFF759FFEAE70D480E4C39
:100DD000FFF754FFE5E70D480D4CFFF74FFFE0E745
:100DE00074D300089DD300083E01FF80CAD30008D9
:100DF000D5D3000898010020F4D30008ACD3000834
:100E00003F01FF80B5D300084001FF80C0D3000838
:100E10003D01FF8008B501F037FC00F0C1FE01F094
:100E200025FC01F031FC024B01221A6008BD00BF15
:100E30007011002000207047036801221B69002107
:100E40001847036800221B691146184703681B698D
:100E5000184703689B69184703689B6A184700296D
:100E60000CBF6FF018000020704701207047112060
:100E7000704770476FF01C0070476FF015007047A7
:100E8000012070470020704770470000F8B5074EFA
:100E900015460C468F18BC4205D014F8011B30468D
:100EA00000F044FEF7E72846F8BD00BFD01200204E
:100EB00038B58DB215F0010405D0084800F048FCA3
:100EC000041C18BF0124EB0605D5044800F056FCAD
:100ED00008B144F01004204638BD00BFD0120020F5
:100EE00010B5044603F028FD204610BD10B50C4691
:100EF0002AB1044800F008FE2070012010BD104601
:100F000010BD00BFD012002038B51D46074B03604E
:100F1000074B1B68044633B9064800F08BFC294692
:100F2000044800F061FC204638BD00BFA4D500088D
:100F300094110020D012002000207047002070473C
:100F400008B5012000F096F90C4A136810B5184452
:100F5000EFF30881884205D3094B0C221A604FF049
:100F6000FF3010BD07490C6824B1074909682144C6
:100F70008842F1D21060184610BD00BF9C030020CB
:100F8000241400208C1100209011002001207047B3
:100F900001207047002103F059BF7047704708B522
:100FA000FFF7FBFF08BD08B5FFF7F8FF08BD00001D
:100FB00008B5037803F00302012A0BD02AB140F2EE
:100FC0008C520549054802F0FFFA43F00203037012
:100FD000012008BD002008BD09D6000858D6000829
:100FE00008B5037803F00302022A05D040F29452B8
:100FF0000449054802F0E8FA23F0030343F0010333
:10100000037008BD09D600087ED600083F2870B5D9
:1010100004462FDC184D55F820305A1C13D10228F5
:1010200011DCFFF78BFF034658B92046FFF784FF1A
:10103000034630B9114E3378BFF35B8FDB0704D51D
:101040000F4B45F82430184670BD3046FFF7B0FF0F
:101050000028F5D04FF41653032202210848FFF769
:1010600053FF3046FFF7BCFF064A07490448FFF725
:101070008DFFE5E70023E6E79C02002074110020C5
:101080008811002098020020890E000838B5054616
:10109000FFF7BCFF0B4B002443F8254030B902F0AA
:1010A0008BFD092303604FF0FF3038BD03685B6997
:1010B0009847051E04DA02F07FFD6D420560F2E7F5
:1010C000204638BD9C020020FFF7E0BF38B50C4633
:1010D0001546FFF79BFF38B902F06EFD0923036048
:1010E0004FF0FF34204638BD03682146DB682A46AE
:1010F0009847041EF6DA02F05FFD64420460EFE7F1
:1011000008B5131E06DA02F057FD162303604FF0F0
:10111000FF3008BD04D0FFF7D9FF40EAE07008BDFA
:10112000184608BD38B50C461546FFF76FFF38B9AD
:1011300002F042FD092303604FF0FF34204638BD22
:10114000036821469B682A469847041EF6DA02F097
:1011500033FD64420460EFE7002A08B503DBBDE815
:101160000840FFF7DFBF02F027FD162303604FF0B2
:10117000FF3008BD10B5FFF749FF044628B902F05B
:101180001BFD09230360204610BD0368DB699847F7
:10119000041EF8DA02F010FD644204600024F2E755
:1011A0001FB504220C4640230DEB020101900DF106
:1011B00009008DF8083003F04BFC214602A802F02C
:1011C00079FF044630B10198FFF7D4FF10B12046F3
:1011D000FFF7E0FE204604B010BDFFF7CBBF38B5E7
:1011E0000C461546FFF712FF38B902F0E5FC09235B
:1011F00003604FF0FF34204638BD036821461B6969
:101200002A469847041EF6DA02F0D6FC64420460CF
:10121000EFE7FFF7E4BF10B5FFF7F8FE30B902F0D3
:10122000CBFC092303604FF0FF3010BD03689B69BE
:101230009847041E04DA02F0BFFC64420460F2E73F
:10124000002010BD0A4C08B523680546986802F0D6
:10125000C5FD2368D86802F0C1FD0120FFF7DBFF60
:101260000220FFF7D8FF0DB1FFF7AEFCFEE700BF8D
:10127000A803002008B5FFF7E5FF38B50D46FFF7D6
:10128000C5FE044630B902F097FC092303604FF015
:10129000FF3038BD0368DB699847002814BF4FF45E
:1012A00000534FF400436B60236820469B6A9847C5
:1012B0002861002038BDFFF7E0BF000013B50446E9
:1012C00003F032FB034628B9009022460249034846
:1012D00002F0E6FA02B010BDECD500081F01018053
:1012E00003F02ABB08B5034653F8082B02B9036084
:1012F00002689A4204D068220249034802F064F965
:10130000184608BD31D5000888D5000810B5044638
:101310000948FFF7E7FF0023084A194652F823005F
:10132000A04208BF42F823100133402BF6D10248F7
:10133000FFF7D8FF10BD00BF781100209C020020ED
:1013400010B50F48FFF7CEFF0E4B032453F82420AF
:101350006AB10134402CF9D102F02EFC182303604D
:101360000748FFF7BFFF4FF0FF34204610BD4FF096
:10137000FF32034843F82420FFF7B4FFF5E700BF2E
:10138000781100209C02002010B50446FFF7D8FF1A
:101390000028A4BF014B43F8204010BD9C02002050
:1013A00070B506460C46FFF7EFFF054690B12146A3
:1013B000FFF7F6FE044630B9074B53F82520964256
:1013C00003D143F82500204670BD02F0F5FB092348
:1013D0000360F8E70446F6E79C0200200EB42DE90E
:1013E000F04185B00546FFF7ABFF041E13DB002379
:1013F000294602A8019301F0DBFF02A802F028F8B9
:101400001B4D064668B902F0D7FB1323036045F86D
:1014100024604FF0FF34204605B0BDE8F04103B032
:10142000704702A802F002F8074602A837B102F09E
:1014300006F80190019B45F82430ECE701F0EDFF40
:1014400006460028DFD0036802A8D3F8088001F020
:10145000D9FF0B9B024601A93046C047064600282B
:10146000E8D002F0A9FB7642066045F82470D0E788
:101470009C02002073B50E461849054603F0E4FDB2
:10148000044620B9FFF7C2FD204602B070BD1449E2
:10149000284603F0D9FD20B90120FFF7B7FD01244C
:1014A000F2E71049284603F0CFFD20B90220FFF7EC
:1014B000ADFD0224E8E72B78402B07D10422691CFC
:1014C0000DEB020003F0C4FA019CDDE726F40041B5
:1014D0002846FFF783FF0446D6E700BFC5D60008BD
:1014E000CCD60008BDD6000870477047074B0849A6
:1014F0009A68084810B5043A52F8044F41F8044F6E
:101500008142F9D14FF000529A6010BD00ED00E029
:10151000FCFFFF1F9401002008B5FFF7E7FFFFF76E
:1015200079FCFFF7E2FF08BD08B5FFF7DDFFBDE876
:101530000840FEF77BBF30B5C36891FAA1F4B4FA56
:1015400084F491FAA1F10325B1FA81F1640005FA5E
:1015500004F4490023EA040302FA01F11943C160CB
:1015600030BD012A02D0022A18BF0022FFF7E3BFD4
:101570002DE9F0410E46411C04D1424942483E2229
:1015800002F022F800F00F08404BC0F3031053F8AC
:101590002840FFF775F806F00705836894FAA4F170
:1015A000B1FA81F194FAA4F20327490007FA01F194
:1015B000B2FA82F223EA01035200022101FA02F296
:1015C00013438360BD4258D8DFE805F01D1D021D9E
:1015D000B8F1070FC6F3032739D9426A230A93FAF1
:1015E000A3F1B1FA81F193FAA3F34FF00F0EB3FA1E
:1015F00083F389000EFA01F19B0022EA010207FA47
:1016000003F313434362026894FAA4F1B1FA81F13F
:1016100094FAA4F30327B3FA83F3490007FA01F11C
:101620005B0005FA03F322EA0102013D1343012D99
:10163000036005D8436832074CBF2343A34343608C
:10164000C6F301122146BDE8F041FFF78ABF026AE6
:1016500094FAA4F3B3FA83F394FAA4F14FF00F0EC3
:10166000B1FA81F19B000EFA03F3890022EA03022A
:1016700007FA01F313430362C5E7672201490448EF
:101680007EE700BF14D7000843D20008D4D6000874
:10169000CFDA0008431C70B50D4604D188221F49DB
:1016A0001F4801F091FF00F00F021E4BC0F3031022
:1016B00053F82240FEF7E4FF066894FAA4F1B1FA69
:1016C00081F394FAA4F259000323B2FA82F28B4018
:1016D00033405200D340013B012B05D8EB1E022BB7
:1016E000436809D823434360032D08D101222146D2
:1016F000BDE87040FFF735BF23EA04034360012DC6
:10170000F4D0052D01D0022D01D10222EFE72146B0
:101710000022BDE87040FFF70EBF00BF14D70008DD
:1017200043D20008D4D600080FB407B5064B0749CA
:101730001B6805AAD868019205F00EF903B05DF8A0
:1017400004EB04B0704700BFA803002064D7000872
:101750004368094A9B0182B0D3581A68120706D51C
:10176000002201921A6801925A680192019A18683F
:10177000C0F3401002B070471C1300204368034AB6
:101780009B01D3581868C0F3C01070471C13002089
:1017900042681449920110B4046854505318826886
:1017A0005A60C2689A600269DA6042691A61026A24
:1017B0009A610022DA84DA619A84DA859A85B0F92E
:1017C0001A20013206D108225A6118465DF8044BEE
:1017D00000F06BBEB0F9182001320CBF04220C22BD
:1017E000F2E700BF1C13002010B581600C46FFF724
:1017F000CFFF28B121460348BDE81040FFF794BF52
:1018000010BD00BF64D70008094B98420BD0A3F568
:101810004C43984209D003F5504398420CBF022034
:101820004FF0FF307047002070470120704700BF25
:1018300000100140F0B50E4685B0044644493046DC
:10184000154601F0B3FB43490746284601F0AEFBBD
:101850000146384601F086FB2060013004D13E4944
:101860003E483D2201F0B0FE022E0AD0032D08D0E2
:101870003749022001F09AFB87421DD1384801F018
:10188000EFFF0127374B206898424FF0000315D136
:101890000193354B5A6C42F010025A645B6C03F0B2
:1018A00010030193019BFFF7AFFF0028606023DA6C
:1018B000A42229492D48D5E70027E3E72C4A904286
:1018C0000BD10293284B1A6C42F400321A641B6C41
:1018D00003F400330293029BE5E7264A9042E2D1EB
:1018E0000393214B5A6C42F020025A645B6C03F064
:1018F00020030393039BD6E71549304601F00EFB06
:101900001449284601F00AFB721C03D0012130461D
:10191000FFF7C0FE6B1C03D001212846FFF7BAFE7B
:101920004FF41653A3600023E360236163612362D5
:10193000268365832046FFF72BFF3FB10E4B0F48F0
:1019400001221A6021464C2203F082F805B0F0BD56
:101950007CD1000828D100088ED70008E2D7000803
:10196000FED70008001001400038024033D80008BC
:10197000004400400014014094110020D0120020C7
:10198000002808DB4209012300F01F0003FA00F0E1
:10199000014B43F82200704700E100E000280DDB16
:1019A0004309012200F01F0002FA00F02033044A2C
:1019B00042F82300BFF34F8FBFF36F8F704700BF14
:1019C00000E100E0F7B5FFF71FFF071E26DB144E0E
:1019D00056F8270010B3134CBD0163591A6812065C
:1019E00006D5DB68190603D50F4B01211B68984704
:1019F00063591A68920608D5DB68980605D50A4B24
:101A000056F827001B680021984763591A68110788
:101A100004D55A69D20744BF5B68019303B0F0BD97
:101A20009C1100201C130020981100200148FFF792
:101A3000C9BF00BF001401400148FFF7C3BF00BF8A
:101A4000004400400148FFF7BDBF00BF0010014047
:101A5000034B19604168034B43F82120704700BFD6
:101A6000981100209C11002009C830B4204CA042DD
:101A70000AD004F58064A0421AD0A4F55044A042D4
:101A800019D11C4C262001E01B4C25201B4D9B012D
:101A9000BAB1EA58D36889B943F02003D360184B30
:101AA00000F110029B6843F8224030BCFFF768BF8A
:101AB000144C4720EAE700242046E7E743F0800380
:101AC000ECE7EB58DA6849B922F02002DA60DB680B
:101AD00013F0800F09D130BCFFF760BF22F0800205
:101AE000DA60DB6813F0200FF4E730BC704700BF0A
:101AF00000100140391A0008451A00081C13002084
:101B000000ED00E02D1A000838B544680546284667
:101B1000FFF71EFE0028FAD0A401034B1B5958689A
:101B2000C0F3080038BD00BF1C13002070B5456825
:101B300006460C463046FFF721FE0028FAD0AD01DC
:101B4000024B5B59C4F308045C6070BD1C13002099
:101B5000DFF830D0002103E00B4B5B5843500431D9
:101B60000A480B4B42189A42F6D30A4A02E0002375
:101B700042F8043B084B9A42F9D300F0D9FCFEF737
:101B800053FB70470000022058E300089802002031
:101B9000680D0020680D002028140020FEE7704723
:101BA00008B50B4B1A6842F400721A601A6842F4C6
:101BB00080621A601A6842F480721A60032000F092
:101BC00009F80F20FEF7E2FFFFF7E9FF002008BD4C
:101BD000003C0240074AD36823F4E0631B041B0C5B
:101BE00043F0BF63000243F4003300F4E0600343BA
:101BF000D360704700ED00E02DE9F341044618B9C9
:101C0000012002B0BDE8F0810368DD0710D423682D
:101C1000980758D423681A0700F19A8023685B0755
:101C200000F1B880A269002A40F019810020E8E79D
:101C3000A64B9A6802F00C02042A07D09A6802F0B8
:101C40000C02082A0AD15B68590207D59F4B1B6812
:101C50009A03DCD56368002BD9D1D1E763689B4D2B
:101C6000B3F5803F11D12B6843F480332B60FEF72E
:101C700093FF964D06462B689B03C8D4FEF78CFF56
:101C8000801B6428F7D90320BBE7B3F5A02F04D14C
:101C90002B6843F480232B60E5E72A6822F4803226
:101CA0002A602A6822F480222A60002BDFD1FEF706
:101CB00073FF06462B689F03A9D5FEF76DFF801BB7
:101CC0006428F7D9DFE7814B9A6812F00C0F07D030
:101CD0009A6802F00C02082A11D15B685E020ED4E9
:101CE0007A4B1A68950702D5E268012A88D11A68EA
:101CF000216922F0F80242EAC1021A608AE7E2682A
:101D0000734BB2B101221A60FEF746FF6F4D0646D3
:101D10002B68980707D52B68226923F0F80343EA5C
:101D2000C2032B6076E7FEF737FF801B0228EFD94E
:101D3000A9E71A60FEF730FF644D06462B68990745
:101D40007FF568AFFEF728FF801B0228F6D99AE7D7
:101D50006269604B7AB101221A60FEF71DFF5B4D8C
:101D600006466B6F9F073FF559AFFEF715FF801BC7
:101D70000228F6D987E71A60FEF70EFF534D064694
:101D80006B6F98077FF54AAFFEF706FF801B0228AE
:101D9000F6D978E74D4B1A6C12F0805228D1019297
:101DA0001A6C42F080521A641B6C03F0805301934A
:101DB000019B0126484D2B68D9051BD5A368434DCF
:101DC000012B27D12B6F43F001032B67FEF7E4FEB5
:101DD0003E4D074641F288382B6F9B0739D5002EC0
:101DE0003FF420AF394A136C23F08053136419E792
:101DF0000026DFE72B6843F480732B60FEF7CCFEF0
:101E000007462B68DA05D9D4FEF7C6FEC01B0228A8
:101E1000F7D938E7052B04D12B6F43F004032B6768
:101E2000D0E72A6F22F001022A672A6F22F004020B
:101E30002A67002BCAD1FEF7AFFE41F28838074669
:101E40002B6F9807CBD5FEF7A7FEC01B4045F7D9EF
:101E500019E7FEF7A1FEC01B4045BDD913E71B4D96
:101E6000AB6803F00C03082B3FF4CAAE1B4E0023F3
:101E7000022A336034D1FEF78FFE07462B689901A2
:101E80001ED4226AE3691343626A43EA8213E26A58
:101E900043EA0263A26A0D4C5208013A43EA024344
:101EA0006B6001233360FEF777FE054623689A01D5
:101EB0003FF5BCAEFEF770FE401B0228F6D9E2E605
:101EC000FEF76AFEC01B0228D8D9DCE600380240C3
:101ED00000004742800E47420070004060004742C9
:101EE000FEF75AFE04462B689B017FF59FAEFEF776
:101EF00053FE001B0228F6D9C5E600BF134908B5FA
:101F00008B6803F00C03042B03D0082B03D010487C
:101F100008BD104808BD4A684B68496813F480033F
:101F200014BF0C480A48C1F3881118BF002302F0FF
:101F30003F02A1FB00010AF023F9044B5B68C3F3E5
:101F4000014301335B00B0FBF3F008BD00380240F1
:101F50000024F40000127A002DE9F0410D460446F9
:101F600010B90120BDE8F081444B1A6802F00F025D
:101F70008A4228D321688F072DD4C80740D43F4B0D
:101F80001A6802F00F02954266D3226851076CD49A
:101F9000130707D53A4A2169936823F4604343EA5B
:101FA000C1039360FFF7AAFF354B364A9B68C3F322
:101FB0000313D35CD840344B18600F20FEF7E6FDC6
:101FC0000020BDE8F081CAB21A701B6803F00F034D
:101FD0009942C6D1CEE72A4B11F0040F1EBF9A6872
:101FE00042F4E0529A600E0742BF9A6842F460429F
:101FF0009A609A68A06822F0F00202439A60BCE7F7
:1020000062681F4B012A1DD11B6813F4003FA8D042
:102010001B4EB36823F003031343B360FEF7BCFD0C
:1020200041F288380746B368626803F00C03B3EBEB
:10203000820FA4D0FEF7B0FDC01B4045F3D90320AA
:10204000BDE8F081911E01291B6802D813F0007FC2
:10205000DDE713F0020FDAE7EAB21A701B6803F04B
:102060000F039D427FF47DAF8FE70549E0688B68E1
:1020700023F4E05303438B608AE700BF003C024037
:102080000038024059D80008A0030020044B054A3C
:102090009B68C3F38223D35C034A1068D84070471F
:1020A0000038024069D80008A0030020044B054A0C
:1020B0009B68C3F34233D35C034A1068D84070472F
:1020C0000038024069D80008A00300200F230360F5
:1020D0000B4B9A6802F0030242609A6802F0F00229
:1020E00082609A6802F4E052C2609B68DB0803F4E5
:1020F000E0530361034B1B6803F00F030B60704751
:1021000000380240003C024070470000224A036849
:1021100090420ED0B0F1804F0BD0A2F57C4290429D
:1021200007D002F58062904203D002F580629042AF
:1021300019D14A6823F070031343174A904204D11F
:10214000CA6823F44073134318E0B0F1804FF7D00E
:10215000124A9042F4D002F580629042F0D002F52B
:1021600080629042ECD00E4A9042E9D002F5806243
:102170009042E5D002F580629042E1D003608B6826
:10218000C3620B688362044B984204BF0B6903630C
:1021900001234361704700BF00000140000400407C
:1021A0000040014010B50446A0B190F8393003F06A
:1021B000FF021BB980F83820FFF7A6FF022384F83E
:1021C00039302068211DFFF7A1FF012384F8393041
:1021D000002010BD012010BD036A10B501248C4001
:1021E00023EA04030362036A8A401A43026210BDB1
:1021F00010B5044600220068FFF7EEFF2368104A7E
:1022000093420DD1196A41F21112114208D1196A93
:1022100040F24442114202BF5A6C22F400425A6416
:10222000196A41F21112114208D1196A40F244426E
:10223000114202BF1A6822F001021A60002010BD8C
:102240000000014010B5044601220068FFF7C4FFFA
:102250002368064A934202BF5A6C42F400425A6411
:102260001A6842F001021A60002010BD000001400F
:10227000FFF7E8BF2DE9F0470668C2683369C16916
:1022800023F4405313433361044683680069F268C2
:102290000343606922F41642034322F00C020B430D
:1022A0001343F3607369A26923F440731343B1F5D8
:1022B000004F73617A4B7CD19E4203D003F580635B
:1022C0009E4244D1FFF7F2FE192505FB00F360683A
:1022D0004FF064094000B3FBF0F3B3FBF9F34FEAAE
:1022E0000318FFF7E3FE636868435B00B0FBF3F796
:1022F000FFF7DCFE636868435B00B0FBF3F3B3FBFE
:10230000F9F309FB1373DB003233B3FBF9F35B0022
:1023100003F4F877FFF7CAFE626868435200B0FB27
:10232000F2FAFFF7C3FE636868435B00B0FBF3F3A8
:10233000B3FBF9F309FB13A3DB003233B3FBF9F36F
:1023400003F0070343443B44B360BDE8F087FFF765
:102350009DFE192505FB00F360684FF064094000FD
:10236000B3FBF0F3B3FBF9F34FEA0318FFF78EFE6C
:10237000636868435B00B0FBF3F7FFF787FE6368B1
:1023800068435B00B0FBF3F3B3FBF9F309FB137392
:10239000DB003233B3FBF9F35B0003F4F877FFF7AC
:1023A00075FE626868435200B0FBF2FAFFF76EFEFA
:1023B000B9E79E4202D03B4B9E4240D1FFF776FEEA
:1023C000676819254FF0640905FB00F3BF00B3FBF4
:1023D000F7F3B3FBF9F31F01FFF768FE6368684387
:1023E0009B00B0FBF3F8FFF761FE636868439B0056
:1023F000B0FBF3F3B3FBF9F309FB13831B01323397
:10240000B3FBF9F303F0F008FFF750FE626868438E
:102410009200B0FBF2FAFFF749FE636868439B0045
:10242000B0FBF3F3B3FBF9F309FB13A31B01323346
:10243000B3FBF9F303F00F0343EA080383E7FFF765
:1024400025FE676819254FF0640905FB00F3BF00FE
:10245000B3FBF7F3B3FBF9F31F01FFF717FE636854
:1024600068439B00B0FBF3F8FFF710FE6368684316
:102470009B00B0FBF3F3B3FBF9F309FB13831B01E0
:102480003233B3FBF9F303F0F008FFF7FFFD6268A6
:1024900068439200B0FBF2FAFFF7F8FDBDE700BF1A
:1024A0000010014000140140704710B5044640B3CD
:1024B00090F8393003F0FF021BB980F83820FFF79D
:1024C000F3FF2268242384F83930D36823F40053BF
:1024D000D3602046FFF7CEFE23681A6922F49042AB
:1024E0001A615A6922F02A025A61DA6842F40052EB
:1024F000DA6000202023E06384F8393084F83A3031
:1025000010BD012010BD7FB50F230193022302935C
:102510004FF480520023032101A8039304920593F2
:10252000FFF71AFDB0FA80F0400907B05DF804FB30
:102530000D4AD2F8883043F47003C2F888300B4B50
:102540001A68002142F001021A6099601A6822F0AC
:10255000847222F480321A60054A5A601A6822F4A2
:1025600080221A60D960704700ED00E00038024018
:102570001030002400B58FB01C4B002100911A6C64
:1025800042F080521A641B6C194A03F08053009386
:10259000009B0191136823F4404343F4004313600C
:1025A000136803F440430193019B01230293C0B9D4
:1025B0004FF480330393022308934FF4800309936D
:1025C00004230A930C930823C8220DEB03000B92FB
:1025D0000D93FFF711FB38B9FFF795FF0FB05DF8CA
:1025E00004FB4FF4A023E5E70020F7E700380240A2
:1025F0000070004010B58EB000241A4B00941A6C85
:1026000042F080521A641B6C174A03F08053009307
:10261000009B0194136823F4404343F40043136088
:102620001368039403F440430193019B099403232B
:10263000029301230593102306930223C8220893D3
:1026400008230B920DEB030004220A930C920D93C6
:10265000FFF7D2FA18B9FFF756FF0EB010BD2046AB
:10266000FBE700BF003802400070004008B50120C1
:10267000FFF780FF28B9FFF7BDFF10B9014801F04F
:10268000EFF808BD45D80008174A1849936803F0C9
:102690000C03042B10B50DD0082B0DD0144B0B6080
:1026A000114B144A9B68C3F30313D25C0B68D340ED
:1026B0000B6010BD104BF2E754685068526863021B
:1026C000C2F3881200F03F004CBF0B4B084BB3FB2A
:1026D000F0F35343044A5268C2F3014201325200FC
:1026E000B3FBF2F3DBE700BF00380240A003002099
:1026F0000024F40059D8000800127A00074B084A59
:1027000013601A69910707D5DA68920704D56FF04C
:1027100002021A6100F03ABE704700BF000C004090
:10272000E01300200048704774D8000830B589B025
:1027300001A903A8FFF7CAFCFFF7A8FC0023029336
:102740001E4B01901A6C1E4C42F008021A641A6C5F
:1027500002F008020292029A1A6A42F008021A6211
:102760001A6A22F008021A62069AA3F50B33236054
:102770004FF0FF33E360134BF2B9B0FBF3F00138D5
:10278000002560600E482561A5606561FFF70AFDC0
:102790000D4B0E4A9B680A48C3F808210C4B4FF4B6
:1027A00080225A602946FFF763FD2268D36823F030
:1027B0000203D36009B030BD4000DEE700380240BC
:1027C000E013002040420F0000ED00E0FD2600086D
:1027D00000E100E004480268D36823F00203D360FC
:1027E0000021FFF745BD00BFE0130020014B586AF0
:1027F000704700BF000C0040054B1B686FF00202E1
:1028000058631A61DA6842F00202DA60704700BF6A
:10281000E0130020064B1B686FF002021A615A6930
:1028200042F002025A61DA6842F00202DA6070474E
:10283000E0130020034B1A68D36823F00203D3602F
:10284000704700BFE0130020024B1B686FF00202CC
:102850001A617047E013002008B500210348FFF714
:10286000C7FCBDE80840FFF7E5BF00BFE01300204C
:102870007047000070B50446074B44F8043B05461A
:1028800000F1440654F8040B08B1FEF729FDB442E8
:10289000F8D1284670BD00BF84D8000810B50446A2
:1028A000FFF7E8FF2046FEF71BFD204610BD0000A5
:1028B0002DE9F04188B00546ADF80430BDF9383057
:1028C000ADF80630BDF93C30ADF80830BDF9403008
:1028D000ADF80A30BDF94430ADF80C30BDF94830E0
:1028E000ADF80E30BDF94C30ADF81030BDF95030B8
:1028F000ADF81230BDF95430ADF81430BDF9583090
:10290000ADF81630BDF95C30ADF81830BDF9603067
:10291000ADF81A30BDF964301948ADF81C30002408
:10292000BDF968302860ADF80010ADF80220ADF8B0
:102930001E306C642F1D3DF91480B8F1FF3F1DD08F
:102940001C20FEF7BBFC002106461C2202F082F987
:102950004146304600F0DFFAB8F1FF3F47F8046B1C
:1029600005D0012303FA04F26B6C13436B6401344A
:10297000102CE0D1284608B0BDE8F0810026EBE736
:1029800084D800080346024A2030FEF705B800BF8D
:10299000E92A0008F8B50546134B45F8043B044600
:1029A0000F4610261C220021284602F053F9324619
:1029B000002104F1200002F04DF93246002104F11B
:1029C000300002F047F93246002104F1400002F0E5
:1029D00041F939462046FFF7D5FF2846394600F031
:1029E00087FA2046F8BD00BFF4D8000838B5044681
:1029F0000D4600F005FE2946201DFDF7DFFEBDE86F
:102A0000384000F013BEC36810B504460BB19B6894
:102A10009847204610BD000010B5084B044640F80A
:102A2000203BFEF789F804F14000FFF7ECFF04F1CA
:102A30003000FFF7E8FF204610BD00BFF4D80008C3
:102A400010B50446FFF7E8FF2046FEF749FC204694
:102A500010BD884238B504460D460AD0FFF7D3FFB3
:102A60003CB1EB681BB15B68294620469847EB6890
:102A7000E360204638BDF0B50F4685B0044600F04F
:102A8000BFFDFD6804F13006203465B1394630469B
:102A9000FFF7DFFF012201212046FDF705FF00F0CF
:102AA000C5FD05B0F0BD10222946684602F0D2F8F7
:102AB00069463046FFF7CDFF6846FFF7A4FF2A4678
:102AC000E9E70000C36810B52BB940F23A22044987
:102AD000044800F079FD1B68BDE81040184700BFAE
:102AE00094D80008E7D80008012908B502D00229C7
:102AF00006D008BDC36B13B13030FFF7E3FF08BD4C
:102B0000C36C002BFBD04030F7E77047A0F1B0005A
:102B1000FFF7FBBFA0F1B000FFF7F7BF00F058B818
:102B2000A0F1B000FFF7FABF00F055B8A0F1B00077
:102B3000FFF7FABF38B504461D46049B00F05AF86B
:102B4000294604F1B00000F0E3FC064B03F1080253
:102B5000226003F128028833C4F8B020C4F8B430EE
:102B6000204638BDFCD800087047704710B4446850
:102B700000F108010EC95CB103F0010002B938B1DF
:102B80005B1008B1E0588258E0185DF8044B10471C
:102B90005DF8044B7047000000EB01138C33DA68DA
:102BA00010B57AB100EB0110D0F898202AB940F2A4
:102BB0003A220549054800F007FD12681846BDE8AD
:102BC0001040104710BD00BF94D80008E7D8000897
:102BD0004030FEF799BF10B540300C46FEF7A6FF17
:102BE000204610BDC36810B504460BB19B689847DA
:102BF000204610BD2DE9F04F04469B462D4B036047
:102C000000252D4BA06085B0436089469246C56083
:102C10000561456185610577457729461022203099
:102C200002F018F804F140062946102204F13000A1
:102C300002F010F804F18C0829464C22304602F0CC
:102C400009F804F19C0729461022404602F002F8D8
:102C500029461022384601F0FDFF10222946C4F80B
:102C6000ACB0684601F0F6FF69464046FFF7F1FE5A
:102C70006846FFF7C8FE10222946684601F0EAFFC1
:102C800069463846FFF7E5FE6846FFF7BCFE524648
:102C900049463046FEF7CEFDD4F8AC103046FEF77C
:102CA000A3FD304622460549FEF7D2FE204605B078
:102CB000BDE8F08F94D900086D2B0008992B00080F
:102CC0002DE9FF410646884656F8403B17461B68EB
:102CD00005463C01984700F093FCD8F80C308C3442
:102CE0002C44ABB1E3680BB900F034FE41462046FA
:102CF000FFF7AFFE012239463046FEF7B5FE00F081
:102D000095FC2B6828465B68984704B0BDE8F081C5
:102D1000E3680BB100F040FE10220021684601F08C
:102D200099FF69462046FFF794FE6846FFF76BFE61
:102D30000022E0E77FB51B4B036004461022002110
:102D4000684601F087FF002269462046FFF7B8FF7A
:102D50006846FFF758FE10220021684601F07AFF0E
:102D6000012269462046FFF7ABFF6846FFF74BFE9E
:102D700014F18C0608D004F1AC05B54204D0103D26
:102D80002846FFF740FEF8E704F13000FFF72AFF7E
:102D900004F12000FFF726FFA06900F001FB2046A8
:102DA00004B070BD94D9000810B50446FFF7C2FF07
:102DB0002046FEF795FA204610BD10B5044600F0F7
:102DC0001FFC23681BB1237F0BB100F0E5FD00233E
:102DD000236000F02BFC204610BD10B5044600F027
:102DE0000FFC236853B9237F0BB100F0B3FDA0693A
:102DF00000F0B2FAC4E9020101232360BDE81040EB
:102E000000F014BC38B5044600F0FAFB236863B147
:102E1000A06900F0A1FAD4E90245041B61EB0505A5
:102E200000F004FC2046294638BD00240025F7E7C1
:102E300070B5064600F0E4FB3046D6E90445FFF7DE
:102E4000E1FF24184D4100F0F1FB2046294670BDFA
:102E500008B5FFF7EDFF08BD10B5044600F0D0FB44
:102E6000A06900F079FA00220023C4E90201C4E954
:102E70000423BDE8104000F0D9BB002310B50022A8
:102E800003600023C0E90223C0E90423044600F0E4
:102E900079FA0123A06123772046FFF7DDFF204662
:102EA00010BD70B50E4604461546FDF767FC0136A9
:102EB00009D020460021FDF785FC29462046BDE8C3
:102EC0007040FDF77BBC70BD38B504460D46036805
:102ED0005AB18268136020460121FDF773FC294630
:102EE0002046BDE83840FDF769BCC2681B04F1E725
:102EF0000022FFF7D6BF70B50E4604461546FDF713
:102F00003DFC013606D02A4620460021BDE870402F
:102F1000FFF7DABF70BD0022FFF7EDBF13B504461F
:102F200001300FD102B010BD9C420AD12046896801
:102F3000FEF71EFB0021204602B0BDE81040FEF760
:102F4000A9BB0C31B1F900305A1CEDD1002300931C
:102F500022460249024800F0A3FC00BFD5D9000870
:102F600030010180884207B502460AD0431C08D0D0
:102F7000013105D0002300930449054800F090FC7E
:102F80000146084603B05DF804FB00BFA4D9000861
:102F900030010180B1F900305A1C01D11846704748
:102FA000834201D1486870470C31F3E7431C07B5F1
:102FB0000AD0FFF7EFFF431C06D10023024600931F
:102FC0000349044800F06CFC03B05DF804FB00BF4B
:102FD000B5D90008300101802DE9F74FD0F804A0E1
:102FE0009AF83A300446002B46D103685B6898474C
:102FF00063681B6A98423FD0DAF82030DAF808405C
:10300000CAF82000A0EB0308DAF80C30314808EACF
:103010000308844246464FF0000727D0DAE90A2326
:103020009AF83BB0A8FB0089CDE900230025BBF14D
:10303000000F2BD05A464046494608F0F5FBDDE923
:10304000002312EB080243EB090390465A469946C7
:1030500006460F4608F0F4FBB8EB000069EB0101EF
:10306000A94208BFA0420AD2CAE90A01DAE90C2340
:10307000B6185F41CAE90C6703B0BDE8F08F0136AE
:1030800047F10007001B61EB0501EDE722462B46E7
:103090004046494609F074F8224606460F46404627
:1030A00049462B4609F06CF8DDE9008918EB020867
:1030B00049EB0309A94508BFA04502D2CAE90A891C
:1030C000D4E7013647F10007B8EB040869EB0509BE
:1030D000F4E700BF40420F00824206D98A420BD972
:1030E000884294BF002001207047884206D98A4256
:1030F0008CBF0020012070470120704700207047DE
:103100002DE9F14F476897F83A300646002B60D119
:1031100097F83930002B5CD1FFF75EFF75686B685C
:10312000002B59D0D5E90C89D3E90001894508BFA6
:10313000804505D333685B6901B0BDE8F04F18479F
:10314000D5E90623B0EB080861EB09094B4508BF38
:1031500042452C6906D3AB68254A93420FD14445BA
:1031600028BF44462A6A3B6A1444EA681440A342D2
:1031700021D14FF484721F491F4800F025FA95F8B9
:103180003B20DFF878A04FF0000B7AB1404649466B
:1031900008F056FB10EB0A0041EB0B01144A002328
:1031A00008F0EEFF844228BF0446DBE7A3FB0801DA
:1031B00003FB0911EEE7336820461B699847336823
:1031C0005B68984722460146386AFFF785FF00286A
:1031D000B0D101B0BDE8F08F3B69386AFA68184495
:1031E00033681B69104001B0BDE8F04F184700BFBD
:1031F00040420F00E6D9000830DA00083F420F00D5
:103200002DE9F04F436893F8382085B00546002A31
:1032100066D193F83A30002B62D103681B68984757
:103220002B68DB699847076827B92D222E492F485C
:1032300000F0CAF91F23012202FA03F18F425FFA5C
:1032400083FB02D0013BF7D19B46D0F804A0AAF142
:1032500004031C2B01D93B22E8E7072617F1FF30B6
:1032600006FA03F6224C4FF0000343F1FF313A46D1
:10327000C4FB060108F084FF6C682A680023236001
:10328000636052680393CDE90001904720626C6847
:103290004FF000084FF000095246C4E90A89A760C0
:1032A00084F83BB00120002108F0CAFADDE90023D0
:1032B000C4E90623039B84F8393084F83A30013896
:1032C0000123E06026612846C4E90C8984F838307F
:1032D000FFF782FE284605B0BDE8F04FFFF710BFAC
:1032E00005B0BDE8F08F00BFE6D90008CFDA0008CE
:1032F00040420F0070B5044600F082F92368DB6895
:103300009847636893F83A201AB1BDE8704000F01E
:103310008DB9012283F8392063685B68A3B1204628
:10332000FFF75AFE65686E68D5E90C01D6E90023FF
:10333000994208BF904207D3F3686B602B68002B5B
:10334000EAD0B0689847E7E76368002283F839203D
:103350002046FFF7D5FED8E738B50446FFF750FF03
:1033600000F04EF92046FFF737FE6368D3E90C45BD
:1033700000F05CF92046294638BD08B5FFF7ECFFA0
:1033800008BD00000048704754DA0008024B1B6873
:103390000BB1024818477047A403002054DA000814
:1033A000024B1B6803B11847704700BFE8110020AB
:1033B00070B50E4600250446056045600E4930464E
:1033C00002F02CF830442060294623681A782F2A0E
:1033D00007D10133236051B92A220849084800F077
:1033E000F3F8002AF7D0013301312360EDE700F054
:1033F00093FB6060204670BD7CDA00087EDA00082E
:10340000C8DA000800687047406808B520B100F0CD
:103410002BFB431E5842584108BD10B50446FFF728
:10342000F3FF10B1606800B1043810BD406808B502
:1034300020B100F019FBB0FA80F0400908BD10B5CA
:103440000446FFF7F3FF10B1606800B1043810BD07
:103450004068003018BF0120704700207047704757
:103460007047F8B503681B6D0E4604468F189847E1
:103470003546BD4207D0236815F8011B9B6C2046DA
:1034800098470130F5D1236820465B6D9847A81B0B
:10349000F8BDF8B503681B6D0E4604468F189847B3
:1034A0003546BD4208D023682046DB6C9847431C54
:1034B00002D005F8010BF4E7236820465B6D9847BE
:1034C000A81BF8BD002070477047002070470020FF
:1034D0007047000010B5054B03605033044640F8B8
:1034E000043F00F0E1FA204610BD00BFDCDA00081E
:1034F000A0F10400EEE700BF10B50446FFF7EAFFB5
:103500002046FDF7EDFE204610BDA0F10400F3E7D4
:103510000F4B13B50022044640F8043B00F0A6FA16
:103520000C4B236060336360002363610A492046CB
:10353000FDF736FF0346606128B90090024607494F
:10354000074800F0ADF9FDF725FD204602B010BD9B
:1035500030DF000854DB000834DB000837DB0008EC
:103560001901018010B5074B03F1080268330446C6
:1035700002604360406900F069FB2046FFF7AAFF44
:10358000204610BD4CDB00080EB477B5036807ADCC
:10359000044655F8046B1B6D9847012200216069B1
:1035A000019500F091FD019A6069314603F0D4F96C
:1035B000236805465B6D20469847284603B0BDE862
:1035C000704003B07047000007B504460D4616462C
:1035D00000F016F800962B4600222146014800F024
:1035E0005FF900BF4401FF80EFF31080C04300F09B
:1035F00001007047EFF30580003018BF01207047CD
:1036000010B5074C2368013304D1512205490648FF
:10361000FFF7DAFF00F0FCF923680133236010BDE7
:10362000EC110020BCDB000809DC0008054B1A681F
:1036300032B11A68013A1A601B680BB900F0FAB986
:10364000704700BFEC1100200122D0E84F3FC0E8D6
:10365000412F0029F9D1D8B2003018BF012070479E
:10366000D0E85F3F0B449BB2C0E8523F002AF7D13D
:1036700018467047D0E85F3F5B1A9BB2C0E8523FE4
:10368000002AF7D11846704708B50B48FFF7DCFF52
:1036900028B1FFF7B5FFBFF34F8F20BFFDE7FFF75E
:1036A000A9FF08B1FDF790FAFFF79EFF0028F9D0B7
:1036B0000120FDF7DFFD00BF3C12002070B5164C65
:1036C00090B034EA200428BF04460D461646002177
:1036D0004022684601F0BEFA8DE850000295FFF7DF
:1036E0008FFF0E4A13680133012B136004D140226F
:1036F00069460B4801F0ACF940226946094801F0DF
:10370000A7F9094B1B680BB106489847FFF78EFFD6
:10371000002010B070BD00BF0101FF80F01100203B
:10372000FC11002040120020F41100202DE9F0418E
:103730002E4C0E462168C1F34173032B0CBF4D4242
:103740008DB2C1F307438046174629482A46FDF744
:1037500095FA6FF498731D44132D0FD8DFE805F028
:103760000A2D3033363C393F0E0E0E0E0E0E0E0E65
:103770000E0E0E42A1681F48FDF780FA4046FDF785
:1037800053FA61681C48FDF779FA4EB11B48FDF702
:103790004BFA3046FDF748FA39461948FDF76EFAFC
:1037A000A1681848FDF76AFA21681748FDF766FA1C
:1037B0001648BDE8F041FDF761BAA1681448DBE79F
:1037C000A1681448D8E7A1681348D5E7A168134851
:1037D000D2E7A1681248CFE7A1681248CCE7A168F8
:1037E0001148C9E71148FDF749FAC7E74012002020
:1037F000CCDC00081DDD0008C5DD0008D6DD0008B2
:10380000DEDD0008E2DD0008F6DD000842DE00082B
:1038100033DD000843DD000852DD000865DD0008E7
:1038200079DD00088DDD00089CDD0008B2DD0008B0
:1038300010B50A4C00F13C010346002013F8012B9F
:1038400080EA0260082200284FEA4000B8BF6040CA
:10385000013AF8D18B42F1D110BD00BFB71DC104B0
:103860000FB407B50B487546FFF7EEFE044670B976
:1038700001462A460848FFF721FF2146074822460D
:10388000FFF754FF05A904980191FDF7DDF9FFF753
:10389000FBFE00BFF81100200001FF803ADC0008A9
:1038A00080B506462348F0460C4617461D46FFF7EE
:1038B000CBFE48B9424639463046FFF7FFFE029A32
:1038C00029462046FFF732FF1B4C1C481C4DFFF7D2
:1038D000AFFFD4F8BC30984208BFD4F8B4301848D1
:1038E0000CBF013301236B630023AB63FFF7A0FF21
:1038F000E863FFF785FE12491048402201F0A8F85E
:10390000FFF794FE0F48FDF7B9F9D4F8B410002979
:1039100002DD0D48FDF7B2F9BFF34F8F0B490C4B99
:10392000CA6802F4E0621343CB60BFF34F8F00BF5D
:10393000FDE700BFF81100209801002018020020C8
:10394000401200204FDC000882DC000800ED00E09F
:103950000400FA0513B50D4CFFF752FE22884FF60E
:10396000FF739A4208D1FFF761FE0023228800937B
:1039700007490848FFF794FF01212046FFF770FE32
:1039800002B0BDE81040FFF751BE00BF801200201A
:103990005CDE00082301048037B50B4CFFF730FED6
:1039A000258845B9FFF742FE228800952B46074936
:1039B0000748FFF775FF01212046FFF75BFE03B0C4
:1039C000BDE83040FFF732BE8012002081DE0008E3
:1039D0002401048070B50446FFF7D4FC0646FFF7C7
:1039E000CCFC05463046FFF7C8FC401BA042F9D38B
:1039F00070BD000007EE100ADFED047A67EE277A4B
:103A0000FDEEE77A17EE900AFFF7E4BF0024744951
:103A1000EFF31083DB4372B6044A117829B90449E5
:103A200003F001030B700123137070478312002011
:103A30008212002008B5EFF31083DB0704D436228E
:103A400005490648FFF7C0FD054B00221A70054BDB
:103A50001B7803B162B608BD9FDE0008F3DE0008E4
:103A60008312002082120020007B704738B5044684
:103A70000A4B0360002343600D46A16002730848AF
:103A8000FDF730FC45B1074B1A6862601C600448C2
:103A9000FDF728FC204638BD6560F8E720DF000808
:103AA000881200208412002010B5124B03600446D7
:103AB0001148FDF717FCA3682BB1104A13689C420C
:103AC00012D1636813600E4B0B481A68944204BF0E
:103AD00000221A60FDF706FC237B13B9201FFDF7B7
:103AE00015FC204610BD13465A689442FBD162680B
:103AF0005A60E8E720DF00088812002084120020C6
:103B00009812002010B50446FFF7CEFF2046FDF7BF
:103B1000E7FB204610BD000070B5064614480D4670
:103B2000FDF7E0FB134B1C687CB1A068E8B101F025
:103B300007FCA84219D12A463146A06800F058FF78
:103B400098B90B48FDF7CEFB0DE0072DF9D12A46B9
:103B50003146094800F04CFF0028F2D10448FDF737
:103B6000C1FB064B1C68204670BD6468DCE700BFE3
:103B700088120020841200200DDF00089812002017
:103B8000036870B51B690122002104469847051E91
:103B90000DDB236802221B69002120469847236819
:103BA000064629461B690022204698473546284686
:103BB00070BD0000FDF794BB014B1868704700BF53
:103BC000A803002070B539B105460C4608B1836BD7
:103BD00083B3B4F90C3013B90026304670BD2146CA
:103BE000284600F03BF8E36A064633B1E16928460F
:103BF00098470028B8BF4FF0FF36A3891B0620D492
:103C0000216B41B104F14003994202D0284608F0EB
:103C100047FC00232363616C21B1284608F040FC77
:103C20000023636400F0CAF90023A38100F0C8F9FF
:103C3000304670BD00F0BEF9B4F90C30002BCBD08B
:103C4000CDE72169284608F02BFCD9E7024B014655
:103C50001868FFF7B7BF00BFA8030020B1F90C3008
:103C60009AB22DE9F0410C461107804648D46268AB
:103C700043F40063002AA3815DDDA56A002D57D0BF
:103C800000229BB2D8F80060E169C8F8002013F464
:103C9000805254D101234046A847431C66D0A389D3
:103CA000A56AE1695F0705D56268236B801A0BB1CD
:103CB000E36BC01A024600234046A847451C48D182
:103CC000D8F80020B4F90C30002A5CD01D2A01D0AD
:103CD000162A64D122690021C4E9002123F400637B
:103CE000A381216BC8F8006011B304F1400399422D
:103CF00002D0404608F0D4FB00202063BDE8F081EC
:103D00002669AEB12568266091070CBF6369002360
:103D1000AD1BA3600AE02B463246676AE169404664
:103D2000B8470028A5EB000506440ADD002DF2DCAB
:103D30000020BDE8F081E26B002A9EDCF8E7206DF0
:103D4000B0E7A38943F04003A3814FF0FF30BDE803
:103D5000F081B4F90C302269226023F40063002260
:103D60006260DA04A381BCD52065BAE7D8F80030D8
:103D7000002B94D01D2B0FD0162B0DD0A38943F010
:103D80004003A381D5E723F400632169A381DB0409
:103D9000C4E90012A5D5E7E7C8F80060C8E743F01A
:103DA0004003A381C5E700BF10B5044682B008B147
:103DB000836B23B1B1F90C0048B902B010BD019179
:103DC00000F0F8F80199B1F90C000028F5D0204670
:103DD00002B0BDE81040FFF741BF00BF20B1054B66
:103DE00001461868FFF7E0BF034B0449186800F06C
:103DF000D5BC00BFA803002078DF0008A93D00085B
:103E000000207047014900F0C9BC00BFC53B000855
:103E10002DE9F84F45682C4BC3630024074600F595
:103E20003B7204230321C0E9B912C0F8E0422146E5
:103E3000EB6005F15C006C66C5E90044AC60C5E967
:103E40000444AC61082200F005FFDFF888B0BE68CA
:103E5000DFF884A0DFF88490DFF884801B4BC5F87E
:103E60002C80C5E9075BC5E909A92146F360082252
:103E700006F15C007466C6E90044B460C6E9044417
:103E8000B46100F0E7FEFD68114BC6F82C80C6E96E
:103E9000076BC6E909A92146EB606C66C5E90044D9
:103EA000AC60C5E90444AC6105F15C00082200F097
:103EB000D1FE0123C5E9075BC5E909A9C5F82C8036
:103EC000BB63BDE8F88F00BF053E00080900010094
:103ED00012000200B14F0008D94F00081950000825
:103EE000395000080020704770B54A1E682505FB50
:103EF00002F50E4605F1740108F0CEFA044640B111
:103F000000210C30666005F168022160A06000F0BD
:103F1000A1FE204670BD00BF1F4B70B51D68AB6B86
:103F200006464BB305F53875D5E90134013B05D597
:103F30001EE0013B5A1C04F1680419D0B4F90C20AE
:103F4000002AF6D10025154B6566C4E90055A56029
:103F5000C4E90455A5612946E360082204F15C0028
:103F600000F078FEC4E90C55C4E91155204670BD37
:103F70002C682CB12546D7E72846FFF749FFD1E743
:103F800004213046FFF7B0FF044628600028F1D135
:103F90000C233360EAE700BF78DF00080100FFFF71
:103FA000024B0349186800F0F9BB00BF78DF000836
:103FB000C53B0008836B03B1704729E7704700BF1A
:103FC000704700BF704700BF704700BF024B0349F6
:103FD000186800F0BDBB00BFA8030020013E000828
:103FE000024B0349186800F0B3BB00BFA8030020D0
:103FF000E53E000838B50A4C0A4D641BA4100AD0EF
:1040000004F18043013B05EB8305013C55F804397D
:104010009847002CF9D1BDE8384009F03FB800BFFF
:10402000640D0020600D0020F0B5134683B00F46EC
:1040300001AA1946064603F0F5FDF0B105463046E3
:10404000FFF76AFF0446C0B139464FF4DB73019AAB
:10405000304600F04FFE00281CDB124B1249134A79
:10406000E081C4E90743124BE362EB05A581C4E993
:10407000091206D4204603B0F0BD0024204603B048
:10408000F0BD304602230022214600F01BF82046F6
:1040900003B0F0BD0025FFF791FFA581FFF790FF6A
:1040A0002C46E7E7B14F0008D94F00081950000827
:1040B00039500008024B0A4601461868FFF7B4BFA2
:1040C000A803002000F00CB810B4044C13460A46B4
:1040D000014620685DF8044B00F002B8A8030020F8
:1040E0002DE9F04F0C4697B091461D46064608B1A3
:1040F000836BBBB1A38903F48473B3F5847F19D0B8
:10410000A76A002F00F02981012D18D0022D67D059
:10411000002D5BD0162333604FF0FF38404617B0B8
:10412000BDE8F08FFFF746FFA38903F48473B3F56E
:10413000847FE5D121463046FFF736FEE0E7214691
:10414000304600F031F9B0F1FF3F8046E4D0AA4696
:10415000814400252369002B3DD0B4F90C3040F692
:104160001A019AB20A4207D1500556D47D4A9742A5
:104170003AD043F40063A38121463046FFF714FE92
:1041800080460028C8D12B464A46E1693046B847E8
:104190000130C1D0216B41B104F14003994202D0FA
:1041A000304608F07DF900232363A3892269226049
:1041B00023F402630021A381616004F15C00082202
:1041C00000F048FD404617B0BDE8F08F2369AA46CD
:1041D000A846002BC1D12146304600F05BFBBCE76E
:1041E0004FF0000AD046B5E7B4F90E100029C0DB45
:1041F0006A46304600F0C4F8002840F09580019AE5
:10420000B4F90C3002F47042B2F5004FB1D143F46E
:1042100080634FF48062A381E264002D5DD1CB46C0
:10422000BAF1000F68D1A389D90474D5236D6068F1
:10423000216BA3EB00080346002964D0D4F83CC0EE
:10424000A8EB0C08A36B226980449B1AA8EB030817
:104250006344C34503DB08EB0300584567D8E36CB0
:10426000E1695B4203EA0B08424600233046B84747
:10427000013081D02369216B23600023636041B149
:1042800004F14003994202D0304608F009F90023B6
:104290002363A389BBEB080B23F02003A38110D079
:1042A0002146304600F046FD00287FF465AF636884
:1042B0005B45FFF461AF2268A3EB0B035A44C4E9EA
:1042C000002304F15C000822002100F0C3FC4FF041
:1042D0000008404617B0BDE8F08F6A46B4F90E10EA
:1042E000304600F04DF800287FF446AF049B09EB00
:1042F000030BBAF1000F96D0216B19B16068D4F8A6
:104300003CC09FE7636821682269891AA8EB01080D
:104310000B4400219DE752460123E1693046B8472E
:10432000421C034683D127E7B4F90C3021E7ABEBFD
:1043300008084244A3EB0803C4E9002341B104F197
:104340004003994202D0304608F0AAF800232363C4
:10435000A38923F02003A381B3E71D2333604FF02B
:10436000FF38DBE61950000810B4044C13460A4627
:10437000014620685DF8044BFFF7B2BEA803002099
:1043800038B50B46074C05461146184600232360F6
:10439000FCF791FF431C00D038BD2368002BFBD0F5
:1043A0002B6038BD2414002070B50C46064608B1B9
:1043B000836B33B3A56A002D39D0A38903F00C02B7
:1043C000082A21D013F480520FD1E169304601232D
:1043D000A847411C28D0A3895A0709D56268236BD6
:1043E000801A0BB1E36BC01A70BD5A07206DF5D46B
:1043F0001B07F9D52368002BF6D022699B1A1844B5
:1044000070BDFFF7D7FDD5E72268002ADAD0216911
:10441000521A002AD6DDDA05D4D53046022300220E
:10442000E169A847451CD6D14FF0FF3070BD1D2370
:1044300033604FF0FF3070BD024B01461868FFF744
:10444000B3BF00BFA80300209368002B00F00281D7
:104450002DE9F04FB1F90C309BB20C46190783B02F
:104460008246904635D522699AB313F00202D8F8F5
:1044700000603DD00027D4F824B0D4F81CC0DFF889
:10448000CC923D464D452B463A4628BF4B466146A9
:104490005046D5B1D847002840F3D280D8F808302C
:1044A0001B1A07442D1AC8F80830002B00F0B780FB
:1044B000D4F81CC0D4F824B04D452B463A4628BF4A
:1044C0004B4661465046002DE4D1D6E900750836CA
:1044D000D8E72146504602F03BFB002840F03081EF
:1044E000B4F90C30D8F800609BB213F00202C1D1CD
:1044F00013F0010940F0B080A76820684D46002DF8
:1045000054D09A0540F1BC80AF42BB4600F2E78030
:1045100013F4906F2FD0D4E9041707EB4707A0EBF3
:10452000010B07EBD777681C7F105844B8423A4616
:1045300084BF07463A465B0540F1E9801146504684
:1045400007F0AAFF002800F0F5805A462169019083
:1045500000F07EFAA289019B22F4906242F0800270
:10456000A281A7EB0B0203EB0B00676123612060C4
:10457000A2602F46AB465A46494600F003FBA268AC
:104580002368D21B5B442F46A26023600025D8F825
:104590000830DB1BB944C8F80830002B3FD0B4F911
:1045A0000C30A76820689BB2002DAAD1D6E90095EF
:1045B0000836A4E70BF1080353E902679B4608336A
:1045C000002FF9D03A460A21304600F0C1F9002800
:1045D00053D00130A0EB06094B46D4E90412206801
:1045E000BB4228BF3B46884203D9A5681544AB426D
:1045F00019DC9A427DDC1346656AE1693246504611
:10460000A847051E1CDDB9EB05096BD00120D8F8C1
:1046100008305B1B2E447F1BC8F8083013BB0020FA
:1046200003B0BDE8F08F31462A4600F0ABFA2368AC
:104630002B44236021465046FFF7B6FB0028E2D00A
:10464000B4F90C3043F040034FF0FF30A38103B0C6
:10465000BDE8F08F0020704733469146104617465C
:104660004E469B46002FA5D00028B5D13A460A21D8
:10467000304600F06DF90028ABD17B1C9946ACE7C1
:104680002369834215D36169A94212D82E4B676A08
:104690009D4294BF2B466FF000434A4693FBF1F3D3
:1046A000504601FB03F3E169B847071EC8DDED1B67
:1046B0006DE7AF4228BF2F463A46494600F062FAFE
:1046C000A3682268DB1B3A44A3602260002BEED172
:1046D00021465046FFF768FB0028E8D0B0E72F4698
:1046E000AB4648E721465046FFF75EFB00288ED0D8
:1046F000A6E71A463146019300F044FA019BA168EF
:104700002268C91A1A44A16022601D467BE7504600
:1047100007F0C4FE034600287FF423AF216950460A
:1047200007F0BEFEB4F90C300C2223F08003CAF867
:10473000002087E70C23CAF80030B4F90C3081E779
:104740004FF0FF306CE700BFFEFFFF7F00FCFF7FF4
:104750002DE9F04110F538771BD088460026D7E9BF
:104760000154013D0FD4A389012B05F1FF3506D972
:10477000B4F90E300133204601D0C04706436B1C0C
:1047800004F16804EFD13F68002FE8D13046BDE85E
:10479000F0813E463046BDE8F08100BF2DE9F84388
:1047A00010F538771FD0884606464FF00009D7E944
:1047B0000154013D11D4A389012B05F1FF3508D91E
:1047C000B4F90E3001332146304602D0C04749EAE1
:1047D00000096B1C04F16804EDD13F68002FE6D19D
:1047E0004846BDE8F883B9464846BDE8F88300BFAF
:1047F00070B50D4E0D4D761BB61006D00024013459
:1048000055F8043B9847A642F9D1094E094D761B4D
:1048100008F03EFCB61006D00024013455F8043BE5
:104820009847A642F9D170BD580D0020580D0020C0
:10483000600D0020580D002070B50C46B1F90E1027
:10484000002996B015461E4614DB6A46FFF798FD10
:1048500000280FDB019A02F47042A2F50052B2FA6E
:1048600082F252094FF480634FF4006032602B6093
:1048700016B070BDA289002312F08000336004D00E
:10488000402218462A6016B070BD4FF480632B603A
:1048900016B070BD8A8992070B4606D501F1430216
:1048A00001211A60C3E90421704770B582B001ABE1
:1048B0006A460C460646FFF7BFFF0099054630469C
:1048C00007F0EAFDB4F90C3070B11649F163019AB2
:1048D0000099206043F08003A381C4E904018AB9F0
:1048E0002B43A38102B070BD9A05FBD423F00303D0
:1048F00004F1430243F002030121A3812260C4E9D1
:104900000421EFE73046B4F90E1003F0C5F910B9F1
:10491000B4F90C30E4E7A38923F0030343F0010367
:104920001BB2DDE7053E0008024B0146186807F0A0
:10493000B3BD00BFA8030020024B0146186807F072
:10494000AFBD00BFA8030020000000000000000071
:1049500001F0FF01102A2BDB10F0070F08D010F830
:10496000013B013A8B422DD010F0070F42B3F6D134
:10497000F0B441EA012141EA014122F007047FF04D
:1049800000070023F0E80256083C85EA010586EAA4
:10499000010685FA47F5A3FA87F586FA47F6A5FAE0
:1049A00087F68EB9EED1F0BC01F0FF0102F00702EC
:1049B00032B110F8013B013A83EA010313B1F8D197
:1049C0000020704701387047002D06BF3546033878
:1049D000073815F0010F07D1013015F4807F02BFB1
:1049E000013015F4C03F0130F0BC0138704700BF02
:1049F000032A70B412D940EA0105AD0704460B46FC
:104A000020D11946204653F8045B54F8046BAE429B
:104A100018D1043A032A20461946F2D8541E72B11E
:104A200003780A789A4208BF241806D00CE010F8E0
:104A3000013F11F8012F934206D1A042F7D1002087
:104A400070BC7047541EEBE7981A70BC704700BFEB
:104A5000844641EA000313F003036DD1403A41D389
:104A600051F8043B40F8043B51F8043B40F8043B48
:104A700051F8043B40F8043B51F8043B40F8043B38
:104A800051F8043B40F8043B51F8043B40F8043B28
:104A900051F8043B40F8043B51F8043B40F8043B18
:104AA00051F8043B40F8043B51F8043B40F8043B08
:104AB00051F8043B40F8043B51F8043B40F8043BF8
:104AC00051F8043B40F8043B51F8043B40F8043BE8
:104AD00051F8043B40F8043B51F8043B40F8043BD8
:104AE000403ABDD2303211D351F8043B40F8043B78
:104AF00051F8043B40F8043B51F8043B40F8043BB8
:104B000051F8043B40F8043B103AEDD20C3205D387
:104B100051F8043B40F8043B043AF9D2043208D07F
:104B2000D2071CBF11F8013B00F8013B01D30B88F1
:104B300003806046704700BF082A13D38B078DD0CF
:104B400010F003038AD0C3F10403D21ADB071CBFA1
:104B500011F8013B00F8013B80D331F8023B20F80B
:104B6000023B7BE7043AD9D3013A11F8013B00F844
:104B7000013BF9D20B7803704B7843708B788370CC
:104B8000604670478842F0B40DD98B1883420AD929
:104B9000841832B1224613F8014D02F8014D9942B2
:104BA000F9D1F0BC70470F2A0ED80346541E002AD4
:104BB000F7D001340C44013B11F8012B03F8012F0D
:104BC000A142F9D1F0BC704740EA01039B073BD1F9
:104BD000A2F110073F0901F1200606EB071601F1CB
:104BE000100300F1100453F8105C44F8105C53F803
:104BF0000C5C44F80C5C53F8085C44F8085C53F80F
:104C0000045C44F8045C1033B34204F11004EAD1AC
:104C10007B1C1B0112F00C0F194402F00F0503441A
:104C200015D0043DAD0803EB850C1C1F0E4656F84D
:104C3000047B44F8047F6445F9D10135AD002B4471
:104C4000294402F00302B1E7541E0346B1E72A46A5
:104C5000ACE700BFF0B4860746D0541E002A3CD013
:104C6000CAB2034602E014F1FF3436D303F8012B35
:104C70009D07F8D1032C29D9CDB245EA05250F2C83
:104C800045EA054533D9A4F11006360903F120079A
:104C900007EB061703F1100242E9045542E90255F9
:104CA0001032BA42F8D1721C14F00C0F03EB02124E
:104CB00004F00F0613D0331F23F00303043313440F
:104CC00042F8045B9342FBD106F003042CB1C9B255
:104CD0001C4403F8011B9C42FBD1F0BC70473446D6
:104CE0001346002CF3D1F8E714460346C2E71A46F0
:104CF0002646E0E770B50D46084C114606461A46B2
:104D0000284600232360FCF7B5FB431C00D070BD90
:104D10002368002BFBD0336070BD00BF241400203B
:104D2000838903F00903092B01D000207047FFF7A6
:104D300055B800BFF8B50C46054610B1836B002B83
:104D400041D0B4F90C309AB2970407D4626E43F4A0
:104D5000005322F400526266A3819AB200219606A3
:104D600061605BD450071BD4D1065AD512073ED4DC
:104D700043F00403A3812369002B44D0B4F90C70E1
:104D8000BEB2B30722D12269226028466369256A30
:104D9000E169A84700286060C8BF002038DDF8BD81
:104DA000216B0029E7D004F14003994202D0284644
:104DB00007F076FBE36B636000202063002BDAD002
:104DC000A36B2360F8BDFFF7F5F8BAE71D4B1E494A
:104DD00018680123A38106F00906FFF7B9FC092E24
:104DE000A781D0D121462846FEF738FFCBE72146E0
:104DF0002846FEF7D9FF88B9B4F90C30A060A0614D
:104E000023F00803B4E721462846FFF743FDB5E742
:104E1000B4F90C300DD143F02003A3814FF0FF30E3
:104E2000F8BD43F0400309222A604FF0FF30A38110
:104E3000F8BD43F040030022A38162604FF0FF30D1
:104E4000F8BD00BF78DF0008214D000800290CBF25
:104E5000022200224FF4806300F000B82DE9F043F5
:104E6000524C256883B004460F4690461E4615B145
:104E7000AB6B002B65D0B8F1020F06D0B8F1010F73
:104E800000F29180002EC0F28E8021462846FEF767
:104E90008BFF216B41B104F14003994202D02846B7
:104EA00007F0FEFA00232363B4F90C300022A2615C
:104EB00062601A064DD423F44A6323F00303B8F169
:104EC000020FA3814CD001AB6A4621462846FFF76A
:104ED000B3FCA3891843A08116B317B3AB6B63B3BC
:104EE000009BB4F90C002760B3421CBF40F4006083
:104EF000A081B8F1010F08BF40F0010083B208BFE4
:104F0000A08113F00800C4E904761ED013F001005C
:104F100035D000207642A661A06003B0BDE8F083E2
:104F2000009E3046FFF700FD074660B3A38943F0BB
:104F30008003A381AB6B002BD2D12846FFF73AF850
:104F4000CEE72846FFF736F895E7A06003B0BDE846
:104F5000F0832169284607F0A3FAB4F90C30AAE7D8
:104F6000002004F1430243F0020300250121A38144
:104F7000A5602260C4E9042103B0BDE8F083A66007
:104F800003B0BDE8F083DDF80090B14506D0484697
:104F9000FFF7CAFC074608B14E46C7E7B4F90C3024
:104FA0004FF0FF30DDE74FF0FF30CFE7A8030020E0
:104FB00010B50C46B1F90E1003F0AAFB002803DB74
:104FC000236D0344236510BDA38923F48053A3817B
:104FD00010BD00BF002070472DE9F0411646B1F921
:104FE0000C201F46D3050C460546B1F90E1009D416
:104FF00022F48052A2813B4632462846BDE8F04169
:1050000001F090BD0022022302F090FEB4F90C20C2
:10501000B4F90E10ECE700BF10B50C46B1F90E1054
:1050200002F084FEA389421C0EBF23F4805343F494
:1050300080532065A38110BDB1F90E1001F0F0BDC1
:10504000A2EB0300704700BF02780B78012A28BF4B
:105050009A42F5D16DE9044540EA0104CDE90267C1
:105060006FF0000C4FEA447212B380EA010414F0AE
:10507000070F6AD100F0070420F0070004F00305D1
:1050800021F007014FEAC505F0E8042314F0040FEE
:10509000F1E804670CFA05F462EA040266EA040621
:1050A0000AD063EA0403624667EA0407664603E03F
:1050B000F0E80423F1E8046782FA4CF582EA06047A
:1050C000A4FA8CF46CBB83FA4CF583EA0705A5FAC5
:1050D0008CF595B950E9022351E9026782FA4CF543
:1050E00082EA0604A4FA8CF483FA4CF583EA0705F5
:1050F000A5FA8CF52543DBD09CB92DBAB5FA85F419
:1051000024F0070427FA04F1DDE9026723FA04F327
:1051100003F0FF0001F0FF01FDE80445A0EB0100F2
:10512000704724BAB4FA84F424F0070426FA04F190
:10513000DDE9026722FA04F202F0FF0001F0FF014C
:10514000FDE80445A0EB0100704714F0030F3CD1CB
:1051500010F0030428D150F8082B51F8083B82FACC
:105160004CF582EA0305A5FA8CF55DB950F8042CDC
:1051700051F8043C82FA4CF582EA0305A5FA8CF555
:10518000002DE8D02DBAB5FA85F424F0070423FAEF
:1051900004F122FA04F202F0FF0001F0FF01FDE841
:1051A0000445A0EB010070474FEAC40420F003005F
:1051B00050F8082B21F0030151F8083B0CFA04F4D5
:1051C00062EA040263EA0403C9E710F003041AD098
:1051D000A1EB040120F00300E40750F8042B06D0F3
:1051E0000FD28B785FFAA2F4E41A06D12BB1CB78F8
:1051F0005FFAB2F4E41A00D11BB920465DF8104BF7
:10520000704701F1040150F8042BCC0721F0030191
:1052100051F8043B48D824D222F07F4482FA4CF55E
:1052200094EA1325A5FA8CF50AD165B951F8043B27
:1052300084EA0204B4EB036F0ED150F8042BEBE7C1
:105240004FEA132355E035F07F454DD10878FDE84E
:105250000445C0F1000070474FEA126203F0FF03FB
:1052600047E002EA1C4482FA4CF594EA1345A5FA99
:105270008CF50AD165B951F8043B84EA0204B4EB19
:10528000034F0CD150F8042BEBE74FEA134330E007
:1052900015EA1C4528D10B884FEA124229E04FEA53
:1052A000124203EA1C4324E002F0FF0482FA4CF5A8
:1052B00094EA1365A5FA8CF50AD165B951F8043B57
:1052C00084EA0204B4EB032F09D150F8042BEBE776
:1052D0004FEA13630DE015F0FF0F05D10B684FEA9D
:1052E000122223F07F4304E04FF00000FDE8044564
:1052F000704712BA1BBA82FA4CF482EA0304A4FA89
:105300008CF5B5FA85F402FA04F203FA04F34FEAD5
:105310001260FDE80445A0EB136070470000000038
:10532000000000000000000000000000000000007D
:10533000000000000000000000000000000000006D
:1053400090F800F06DE9024520F007016FF0000CC5
:1053500010F0070491F820F040F049804FF000046D
:105360006FF00700D1E9002391F840F000F1080048
:1053700082FA4CF2A4FA8CF283FA4CF3A2FA8CF380
:105380004BBBD1E9022382FA4CF200F10800A4FAE7
:105390008CF283FA4CF3A2FA8CF3E3B9D1E904233B
:1053A00082FA4CF200F10800A4FA8CF283FA4CF372
:1053B000A2FA8CF37BB9D1E9062301F1200182FA2C
:1053C0004CF200F10800A4FA8CF283FA4CF3A2FA32
:1053D0008CF3002BC6D0002A04BF04301A4612BA40
:1053E000B2FA82F2FDE8024500EBD2007047D1E943
:1053F000002304F00305C4F100004FEAC50514F0D2
:10540000040F91F840F00CFA05F562EA05021CBFA2
:1054100063EA050362464FF00004A9E770B404781C
:10542000A4B10E7805464EB1A6420AD00A4601E064
:10543000A34206D012F8013F002BF9D1281A70BC04
:10544000704715F8014F002CEDD1F7E72046F6E73D
:105450002DE9F04FC3B01C460891914605460C90CB
:1054600002F05CFC036815931846FFF769FF0D9482
:1054700013901DB1AB6B002B00F067830899B1F955
:105480000C2093B29E04084607D4496E42F40053A0
:1054900021F40051838141669BB21D0740F1D08009
:1054A000089A1269002A00F0CB8003F01A030A2B35
:1054B00000F0D4809FED9A7B00238DED107B12933A
:1054C000CDE9263314931693099332AB25939A466C
:1054D00099F80030002B00F0DD80252B00F0BE860F
:1054E0004D4603E0252B00F0C78025466B786C1CE9
:1054F000002BF7D1B4EB090600F0CC80DDE92632B1
:1055000001333244072BCAF80090CAF80460CDE991
:10551000263200F3B6800AF1080A099A6B78324401
:105520000992002B00F0B680002367788DF8773061
:105530001A4619460A939B4604F101094FF0FF36BB
:1055400009F10109A7F12003582B00F20283DFE8DB
:1055500013F0DA0200030003E20200030003000379
:105560000003000300032902BC020003B702C102CA
:105570000003C000B100B100B100B100B100B10042
:10558000B100B100B10000030003000300030003F9
:10559000000300030003000300039D025102000307
:1055A000510200030003000300034C020003000348
:1055B0006800000300030003000300035900000318
:1055C0000003340200030003000300030003000390
:1055D0000003000300030003AE01740151025102F5
:1055E00051026F01740100030003620100034C01CA
:1055F0006A001C0117010003ED0000035B000003BB
:105600000003C5004BF0100B1BF0200F00F092823E
:105610000D9C073424F00703F3E802450D930123A2
:10562000C3E04BF0100B1BF0200300F079820D9CBF
:10563000073424F00703F3E802450D930023B4E098
:1056400008990C9801F084FA002841F01981089B10
:105650009B8903F01A030A2B7FF42CAF089BB3F944
:105660000E30002BFFF626AF23464A4608990C98C9
:1056700001F07EF9099019E0B4EB09063FF454AF4C
:105680003CE725AA08990C9804F0E8FA48B90DF10E
:10569000C80A42E7279B23B10C98089925AA04F071
:1056A000DDFA089B9B895A0601F1EA80099843B00C
:1056B000BDE8F08FA7F13003002019F8017B00EB63
:1056C000800003EB4000A7F13003092BF5D90A90C5
:1056D00038E74BF0800B99F8007031E7002A41F071
:1056E000B780114B14931BF0200F00F06F810D9CBD
:1056F000073424F00703F3E802450D931BF0010F74
:1057000000F0388254EA050300F0348230238DF82B
:1057100078308DF879704BF0020B022345E000BF22
:105720000000000000000000C0DF00080D9C54F8DD
:10573000043B0E9300258DF87750002B00F08186F6
:10574000711C00F05587324629460E98FFF700F984
:10575000002801F05F800E9BC31A0B932E4623EAAC
:10576000E3739DF877800D94CDF818B007930F96EA
:10577000B8F1000F00F0AD80079B01330793A8E05C
:105780004BF0200B99F80070DAE60D9C54F8043BBE
:105790000D9447F630021C46B74B1493ADF87820B1
:1057A0004BF0020B0025022378274FF000088DF8FC
:1057B0007780721C00F0E2812BF08002069254EA9E
:1057C000050240F0D981002E40F01284002B40F0F9
:1057D000DC841BF001030B9300F0498530238DF826
:1057E000C7300DF1C7030E9359E0002A41F038800D
:1057F0000D9A1BF0200F52F8043B0D9240F03B85B0
:105800001BF0100F40F056861BF0400F00F0528640
:10581000099A1A805CE699F800706C2F03BF99F81A
:1058200001704BF0200B09F101094BF0100B87E6DA
:105830004BF0400B99F8007082E6002A41F0188086
:105840001BF0200F00F02B810D9C073424F0070380
:105850001946F1E802230D9114461D46002A73F102
:105860000003C0F2F184731C9DF8778008D02BF000
:105870008003069354EA050300F08484DDF818B031
:10588000002D08BF0A2C80F05484012330340B9380
:105890000DF1C7038DF8C740CDF818B00E930B9BE0
:1058A000B342B8BF3346079300230F9360E70D9CC4
:1058B000002354F8042B8DF8A0208DF877300122B6
:1058C00028AB07920D940B920E930026CDF818B0DA
:1058D0000F96069B13F0020302D0079A023207923A
:1058E000069A279C12F0840B05D10A9A0799551A3B
:1058F000002D00F3E8829DF8772072B1269A0132DC
:1059000001340DF177000121072ACDE92624CAE9E7
:10591000000100F31A830AF1080A6BB1269B0133D8
:1059200002341EA90222072BCDE92634CAE900124F
:1059300000F319830AF1080ABBF1800F00F0A88177
:105940000B9BF61A002E00F3EC81069BDB0500F1A1
:105950004281269B0E9ACAF800200B9ACAF80420AE
:1059600001331444072B2794269300F34E820AF147
:10597000080A069B590705D50A9B079A9D1A002D10
:1059800000F3FD82DDE9093207998A42ACBF9B181A
:105990005B180993002C40F0FE81002326930DF143
:1059A000C80A95E50D9B99F8007053F8040B0A900E
:1059B0000028C0F218850D93C2E5002A40F05C87EC
:1059C0002E4B14931BF0200F7FF491AE0D9B1BF018
:1059D000100F53F8044B0D9340F02B841BF0400F35
:1059E00000F02784A4B2002588E64BF0080B99F854
:1059F0000070A5E5002A40F02F870D9C073424F0A5
:105A00000703B3EC027B55EC174B0D9325F00043D5
:105A100019938DED187ADDE918014FF0FF32184B1C
:105A20008DED107B06F06EFB002840F02B844FF0CC
:105A3000FF32134BDDE9180106F046FB002840F069
:105A40002184002200232046294606F033FB00284B
:105A500040F042869DF877800A4A0B4B03210026CE
:105A60002BF08000472FC8BF1A46079106900E9270
:105A70000B910F967CE600BFC0DF0008ACDF00088A
:105A8000FFFFEF7F9CDF0008A0DF0008002A40F046
:105A9000EB864BF0100B1BF0200F7FF4D5AE0D9B67
:105AA0001BF0100F53F8044B0D9340F0C5831BF00F
:105AB000400F00F0C18324B2E51722462B46CDE605
:105AC00099F800704BF0040B3AE599F80070012248
:105AD0002B2135E5484610F8017B2A2F00F0298755
